:020000040800F2
:10000000D8C700202902000821360008E52D000885
:100010001D36000829110008794B00080000000077
:10002000000000000000000000000000B1380008DF
:10003000491100080000000031360008C5450008DD
:10004000430200084302000843020008F537000895
:10005000430200084302000843020008430200086C
:100060004302000843020008430200082D11000863
:10007000430200084302000843020008430200084C
:10008000430200084302000843020008430200083C
:10009000430200084302000843020008430200082C
:1000A000430200084302000843020008430200081C
:1000B000430200084302000843020008430200080C
:1000C00043020008430200084302000843020008FC
:1000D00043020008214700084302000843020008C9
:1000E00043020008430200084302000843020008DC
:1000F00043020008430200084302000843020008CC
:1001000043020008430200084302000843020008BB
:100110004302000843020008214600084302000889
:10012000430200084302000843020008430200089B
:1001300000F002F800F069F80AA090E8000C824490
:100140008344AAF10107DA4501D100F05EF8AFF26D
:10015000090EBAE80F0013F0010F18BFFB1A43F0A5
:100160000103184748990200689902000A4410F8F0
:10017000014B14F00F0508BF10F8015B240908BFFC
:1001800010F8014B6D1E05D010F8013B6D1E01F8F3
:10019000013BF9D1641E03D0641E01F8015BFBD161
:1001A0009142E4D37047000000230024002500267C
:1001B000103A28BF78C1FBD8520728BF30C148BFCA
:1001C0000B60704766291AF06284692900F0BE80CE
:1001D000642900F0BB80752900F0B880782900F010
:1001E000F180632900F0E785732900F0EC85002099
:1001F00070471FB500F05EFE04000020002119F0DA
:1002000039FCE0601FBD10B510BD00F057FF11466E
:10021000FFF7EFFF0BF07EFC00F075FF03B4FFF774
:10022000F2FF03BCAFF3008009488047094800474C
:10023000FEE7FEE7FEE7FEE7FEE7FEE7FEE7FEE796
:10024000FEE7FEE704480549054A064B70470000F3
:100250001D46000831010008D8C10020D8C7002081
:10026000D8C30020D8C30020704700000FB4044951
:1002700010B503AA029800F0ABFD10BC5DF814FBAA
:10028000746900200FB41CB5074B06AA7B4469466D
:100290000090059800F06DFD0020694600F07CFD9F
:1002A0001CBC5DF814FB0000090B000070B504468F
:1002B00085690068C10601D5302600E02026C00708
:1002C00007D070BDD4E9012130469047206A401C18
:1002D00020626D1EF6D570BD70B504468569007844
:1002E000C00707D170BDD4E9012120209047206AC2
:1002F000401C20626D1EF6D570BD70B50C460546DB
:10030000012A05D02878800600D5EA69002302E09A
:10031000012305E05B1C934202D2E05C0028F9D186
:10032000A869E618C01AA861286A184428622846F5
:10033000FFF7BCFF04E0D5E9012114F8010B904759
:10034000B442F8D32846FFF7C7FF70BD2DE9F0414E
:100350000646002410687529314616A510D0AFF363
:100360000080002802DA404213A507E031688A07BE
:1003700001D512A502E0490704D511A5012401E029
:10038000AFF3008000210A2206F1240709E0B0FB48
:10039000F2FCB0FBF2F302FB1C003030785418463C
:1003A000491C0028F3D123462A463046BDE8F041D7
:1003B00000F072BA000000002D0000002B000000C9
:1003C0002000000070B504460D4621461068AFF3CA
:1003D00000802188090502D50F4A7A4402E00E4ABE
:1003E0007A440E32002104F1240305E000F00F06E8
:1003F0000009965D5E54491C0028F7D1207800233F
:10040000000704D5702D02D009B102231132204615
:10041000BDE8704000F040BAC6D001002DE9F05FA1
:10042000894604464FF0000ADFF824B1FB44C0F8C7
:1004300020A02046E168884700287DD0252806D0E6
:10044000D4E901219047206A401C2062F1E7002591
:100450005F462046E16888472028064607DB312EA4
:1004600005D2B81910F8200C08B10543F1E7A80728
:1004700001D525F00405C4F81CA00027C4F818A075
:100480002A2E09D0304619F0B1FA38B304EB8708A8
:10049000303EC8F8186019E059F8041B204604EBF8
:1004A00087029161E1688847012F064618D1E0690B
:1004B000002820DA25F020051DE0D8F8180000EB10
:1004C000800006EB40003038C8F818002046E1688C
:1004D0008847064619F08AFA0028EED1012F0AD083
:1004E0002E2E08D12046E16888477F1C0646022F41
:1004F00045F02005C4DBA069002803DA404245F03E
:100500000105A061E80701D025F01005A6B1A6F10C
:100510004100192802D8203645F400654A46314684
:10052000204625604D46FFF74DFE60B1012807D0FB
:10053000ED1D25F0070000E007E000F1080978E76D
:1005400005F1040975E730467AE7206ABDE8F09FB7
:100550009CD0010040EA010310B59B070FD1042A8B
:100560000DD310C808C9121F9C42F8D020BA19BA7E
:10057000884201D9012010BD4FF0FF3010BD1AB1E3
:10058000D30703D0521C07E0002010BD10F8013B38
:1005900011F8014B1B1B07D110F8013B11F8014B5F
:1005A0001B1B01D1921EF1D1184610BD40EA010378
:1005B000024630B59B0710D14FF0013400E008C26D
:1005C00008C91D1B9D4315EAC41FF8D013F0FF0195
:1005D00002F8011B0DD01B0AF8E711F8013B002BB4
:1005E00002F8013B05D011F8013B002B02F8013B5A
:1005F000F3D130BD10B5431C02E010F8011B71B1FE
:100600008107FAD14FF0013202C88C1A8C4314EAE8
:10061000C211F9D0C01A0A0603D0C01E10BDC01AFC
:1006200010BD0A0401D0801E10BD0902FCD0401E7E
:1006300010BD032A40F2308010F0030C00F015804A
:1006400011F8013BBCF1020F624498BF11F801CBD5
:1006500000F8013B38BF11F8013BA2F1040298BF3A
:1006600000F801CB38BF00F8013B11F0030300F0A4
:100670006B80083AC0F0088051F8043B083A51F802
:1006800004CBA0E80810F5E7121D5CBF51F8043B4D
:1006900040F8043BAFF30080D20724BF11F8013BC0
:1006A00011F801CB48BF11F8012B24BF00F8013B22
:1006B00000F801CB48BF00F8012B7047431A28BF50
:1006C0009A427FF6B6AF10441144032A40F22680C6
:1006D00010F0030F1EBF11F8013D521E00F8013D3E
:1006E00010F0030F7FF4F6AF11F0030300F09583D1
:1006F000083AC0F00B8051F8043D083A51F804CD97
:1007000040F8043D40F804CDFFF7F3BF121D5CBF75
:1007100051F8043D40F8043DAFF30080D20724BFF8
:1007200011F8013D11F801CD48BF11F8012C24BF8B
:1007300000F8013D00F801CD48BF00F8012C7047DA
:1007400001B5FFF776FF01BD10B5203AC0F00B8070
:10075000B1E81850A0E81850B1E81850A0E81850B7
:10076000203ABFF4F5AF5FEA027C24BFB1E818502D
:10077000A0E8185044BF18C918C0BDE810405FEA8F
:10078000827C24BF51F8043B40F8043B08BF70470B
:10079000D20728BF31F8023B48BF11F8012B28BF10
:1007A00020F8023B48BF00F8012B704701B501F06B
:1007B000FF03114643EA032242EA024200F059FBDA
:1007C00001BD4FF0000200B513469446964620390D
:1007D00022BFA0E80C50A0E80C50B1F12001BFF4FA
:1007E000F7AF090728BFA0E80C5048BF0CC05DF860
:1007F00004EB890028BF40F8042B08BF704748BFAE
:1008000020F8022B11F0804F18BF00F8012B704721
:100810004FF0013C50F8042B51F8043B9A4221D18F
:10082000A2EB0C03934313EACC1317D150F8042B1B
:1008300051F8043B9A4215D1A2EB0C03934313EAFF
:10084000CC130BD150F8042B51F8043B9A4209D138
:10085000A2EB0C03934313EACC13DBD04FF0000060
:10086000704700BFD01A01BAB1FA81F101F0180146
:1008700022FA01F0CB40DBB2C0B2C01AC1F12001B4
:100880002CFA01F3D11A914311EAC311E6D1704752
:1008900070477047704770472DE9F0470D469946FD
:1008A0009246044600F124080168880604D5E069F0
:1008B00021F01001216000E00120A84201DD471B6A
:1008C00000E00027A1697A1902EB0900081AA0616B
:1008D0002078C00602D42046FFF7E8FC002608E096
:1008E000D4E901211AF806009047206A401C761CC2
:1008F00020624E45F4DB2078C0060AD52046FFF77B
:10090000D5FC06E0D4E9012130209047206A401C44
:100910002062381EA7F10107F4DC07E0D4E90121C9
:1009200018F805009047206A401C2062281EA5F197
:100930000105F3DC2046FFF7CFFC2078000602D546
:100940000220BDE8F0870120FBE72DE9FF4F0C46B0
:100950001E464FF0FF378BB0D2E90001DDF8608012
:100960000A908A46C1F30A5505B93D46002108465A
:100970004FF00000BAF1000F00F4400005DA00EB80
:1009800080004FF4400101EA50004FEA9059B9F15C
:10099000010F00DDB9460A9850EA4A000ED044F62D
:1009A0001050A5F2FF3545432F14B8F1000F1ED0AB
:1009B0007542291E1EDDC9F100021CE0B8F1010FCD
:1009C0004FF0000001D0302103E0F24305E0215454
:1009D000401CB042FBDB30460022002121540B9921
:1009E000C1F80880C1E900200FB0BDE8F08FBD1B41
:1009F0006D1CDEE74A4600DA694206A800F0E4FA18
:100A000006AB93E8070003AB83E8070050460A995A
:100A100013F051FC8DE80700A0F500501F3800903E
:100A20000398002D0ADD42F21F014A4608440023C4
:100A300003A90390684613F0BBFE09E0A0F500503F
:100A40004A461F38002303A90390684613F0C5FEE9
:100A50008DE807000004000C03D04FF0FF30410880
:100A600000E01046B8F1000F03D0002200921546B6
:100A70001EE0751E05D400F021FA303262556D1E5D
:100A8000F9D5B3460122084302D000227F1C04E0BE
:100A90002078302801D100227F1E002A099784D0B7
:100AA0001DE0112D07DA00F009FA303262556D1C95
:100AB00050EA0102F5D1084302D00098C8B10EE017
:100AC0000021681E05E0235C625C63542254401ED2
:100AD000491C8142F7DBAB46A81B401E0990002051
:100AE00004F80B000B98099AC0F80880C0E9002BA5
:100AF0007AE711264FF0000857E72DE9F04F8846B6
:100B00000446D21D22F0070191B0D1E90001CDE9E0
:100B10000A0118F011FF02460B98C00F01D02D20DA
:100B200007E02068810701D52B2002E0202101EA9F
:100B3000C000032A099001D0072A05DB034641467D
:100B4000204600F001FA0BE12078800601D5E0692B
:100B500000E00620B8F1650F814606D0B8F1660FB7
:100B600018D0B8F1670F70D131E00020B9F1110F42
:100B7000009001DB112301E009F101030AAA01A998
:100B80000CA8FFF7E2FEDDE90C70002609F1010573
:100B9000834647E001204B4600904FF000470AAAE9
:100BA00001A90CA8FFF7D1FEDDE90DB00C995D4657
:100BB000002610B909F101000D18B9EB050003D4A6
:100BC000C0F1FF3609F10105A5EB09002BE0B9F1F1
:100BD000010F01DA4FF001090020B9F1110F009067
:100BE000484601DD112300E003460AAA01A90CA82A
:100BF000FFF7ABFEDDE90C704D46002683462078FA
:100C000000070AD4AB4500DA5D4601A8012D04DDDA
:100C1000411911F8011C302907D04F4502DA17F1AC
:100C2000040F04DA012082460FE06D1EEEE7002F6C
:100C300002DCED1B3E4403E0781CA84200DD7D1C75
:100C4000B81B00F1010A4FF000472078000703D4D9
:100C5000AA4501DB4FF0FF3A0021B7F1004F0DF13B
:100C600043088DF8431024D002202B23002F01DAF3
:100C70007F422D230A21021EA0F1010000DC5FB19A
:100C800097FBF1FC97FBF1F201FB1C7C17460CF182
:100C9000300C08F801CDEEE7A8F1010003702188BF
:100CA000090501D5452100E06521A0F1010800F802
:100CB000011C09980FA9A1EB0807FF1D00B1012035
:100CC000411901EBEA70A1693844081A401EA0617D
:100CD0002078C00602D42046FFF7E8FA099828B128
:100CE000D4E901219047206A401C20622078C00688
:100CF00022D52046FFF7DAFA1EE0002E04DBB345CA
:100D000002DD01A8805D00E03020D4E90121904798
:100D1000206A401C2062761CAAF101005FEA000AEA
:100D20000AD100F0C7F8C0680168405CD4E901212D
:100D30009047206A401C2062281EA5F10105DCDCDA
:100D400007E0D4E9012118F8010B9047206A401C04
:100D50002062381EA7F10107F3DC2046FFF7BCFA3A
:100D6000032011B041E6000001694A1C02610878C5
:100D7000704700B58FB0CDE90131002105910549DB
:100D80007944CDE9031011466846FFF747FB0FB0E1
:100D900000BD0000E5FFFFFF0A6802F8010B0A60D2
:100DA000704710B5436913B1AFF3008001E0FFF75E
:100DB000A4FA012010BD127800F124010A7000226B
:100DC0004A700122EDE711684FF0FF32E9E70000B9
:100DD000074B70B50D467B44FFF7CBFF0446284612
:100DE00000F064F910B14FF0FF3070BD204670BDC7
:100DF00043600000431A28BF9A427FF6A5AC104416
:100E0000114410F0030F1EBF11F8013D521E00F8EF
:100E1000013D10F0030F7FF4F6AF103AC0F00A80E6
:100E200010B531E9185020E91850103ABFF4F9AF65
:100E3000BDE81040530724BF31E9081020E908102D
:100E400044BF51F8043D40F8043D12F0030F08BFC1
:100E50007047D20728BF31F8023D48BF11F8012C76
:100E600028BF20F8023D48BF00F8012C70474FF022
:100E700000020429C0F0128010F0030C3FF4A3AC70
:100E8000CCF1040CBCF1020F18BF00F8012BA8BF75
:100E900020F8022BA1EB0C01FFF795BC5FEAC17CA7
:100EA00024BF00F8012B00F8012B48BF00F8012BEC
:100EB00070470000004870472C05002030B5B0F1A5
:100EC0000A0271F100034FEA900E4EEA817EB0EB08
:100ED0000E0061EB91014FEA101E4EEA017E10EB0D
:100EE0000E0041EB11114FEA102E4EEA016E10EB8D
:100EF0000E0041EB11214FEA104E4EEA014E10EB6D
:100F00000E0041EB1141401841F100014FEAD000C1
:100F100040EA41704FEAD1014FEA810444EA9074FB
:100F200010EB800544EB01046D1944EB0404521BE3
:100F3000A3414FF0000348BF0A3200D530BD401C2A
:100F400041F1000130BD00002DE9F0411F4604468B
:100F500003260168072A01F4006004DB08B116A526
:100F600005E016A503E008B115A500E015A521F0E0
:100F700010002060A069C01EA0610FB1401EA061DA
:100F80002046FFF793F94FB1D4E901213846904745
:100F9000206A401C2062C01C206206E0206AFAE73A
:100FA000D4E9012115F8010B9047761EF8D22046AE
:100FB000FFF792F9BDE8F0814E414E006E616E0080
:100FC000494E4600696E66002DE9F0478146164697
:100FD0008AB0354878440DC88DE80D003248784411
:100FE000801C03AC0DC884E80D0041F69B3008441A
:100FF000372190FBF1F290FBF1F5A5F1800501FBA3
:1010000012041B3C02D56442012000E00020DFF8FE
:1010100098A080460027FA44AAF1BE0A0EE0E00735
:101020000AD03246684607EB470101230AEB8101EB
:1010300013F0D3FB8DE8070064107F1C002CEED169
:10104000194F7F44AE3F19E0E80715D007EB0410B5
:101050000DF1180A90E80E008AE80E00C068F04210
:1010600001D1981908903246012306A903A813F06C
:10107000B4FB03AB83E807006D10641C002DE3D1C3
:101080004FF0010332466946B8F1000F03A802D0C1
:1010900013F08EFB01E013F0A0FBC9E90001C9F8D1
:1010A00008200AB0BDE8F08784C50100007B00F08D
:1010B00080007047004870470C0500207546FFF718
:1010C000F9FFAE4605006946534620F00700854605
:1010D00018B020B5FFF7B6F8BDE820404FF0000685
:1010E0004FF000074FF000084FF0000BAC46ACE8A3
:1010F000C009ACE8C009ACE8C009ACE8C00921F0FF
:1011000007018D46704710B50446AFF300802046B6
:10111000BDE81040FFF782B802F0FF0343EA032264
:1011200042EA0242FFF74FBBFEE700000420C4F290
:10113000020050F8041C890758BF7047016841F04D
:1011400002010160704700007047000080B540F266
:101150006C50C2F200004FF4C84113F05FFE4BF236
:10116000C810C0F60100BDE8804014F0D7BB0000F5
:10117000012011F0DBBD000049F20C60C2F200005A
:101180000068704780B501200021032212F020F88A
:1011900046F66C11C2F200010028086008BF80BD4D
:1011A00000210022BDE8804012F09EB8F0B581B069
:1011B00054200FF00DF9044600286AD001200026C3
:1011C0002460C4E90F0640F2C4274FF0500080F3BA
:1011D0001188BFF36F8FBFF34F8FC2F200073968DA
:1011E000481C386099B94EF60451CEF200010968E6
:1011F00009060CD048F2805049F28231C0F6020054
:10120000C0F602014FF4BE72FFF730F8386821686B
:10121000D4E90F23A66303FB0215013A02FB031274
:10122000C4E90115FF21E26084F8441084F84510F8
:101230004FF0FF31224642F8181F6261C4E90722CD
:101240002246266142F82C1FA262C4E90C22666283
:1012500060B948F2805049F28231C0F60200C0F60F
:10126000020140F28312FFF701F838680138386054
:1012700002D1002080F31188012084F85000002062
:10128000A0642060C4E9020020460021002212F080
:101290002BF849F20060C2F2000004600120002136
:1012A000032211F095FF49F20461C2F200010860C7
:1012B00030B10021002201B0BDE8F04012F014B8B6
:1012C00001B0F0BD2DE9F04F85B049F20060C2F2E7
:1012D000000004684FF0FF3004905CB948F2805081
:1012E00049F21831C0F60200C0F6020140F2E352A2
:1012F000FEF7BCFF206C58B148F2805049F218311B
:10130000C0F60200C0F6020140F2E752FEF7AEFF5F
:101310004CF29010C2F20000006888B14CF2BC00A0
:10132000C2F20000006858B148F2805049F218310A
:10133000C0F60200C0F6020140F2EC52FEF796FF42
:101340004EF6045604F1240040F2C42548F2805BB6
:1013500049F28239CEF2000600900027C2F2000561
:10136000C0F6020BC0F602090DF1080800204FF08C
:10137000010A01900AE000BFB8F1000F4FF0000A27
:10138000B0463E464FF0000700F0F3814FF05000AA
:1013900080F31188BFF36F8FBFF34F8F2868411C14
:1013A000296040B93068000605D0584649464FF4D8
:1013B000BE72FEF75BFFA06B002840F0928104989C
:1013C000002800F0AD815FEACA700BD04CF22C10FF
:1013D000C2F20000006802904CF2C410C2F2000099
:1013E00000680390286830B95846494640F2831295
:1013F000FEF73CFF28680138286001D187F3118887
:101400004CF2BC01C2F200010868013008604FF0E4
:10141000500080F31188BFF36F8FBFF34F8F2868A0
:10142000411C296040B93068000605D0584649463D
:101430004FF4BE72FEF71AFF94F84400FF2808BF6D
:1014400084F8447094F84500FF2808BF84F845707C
:10145000286830B95846494640F28312FEF706FF25
:1014600028680138286001D187F31188404604A913
:1014700012F004F990B320460EF0F6FE12F018FEBA
:101480004FF0500080F31188BFF36F8FBFF34F8F81
:101490002968481C286049B93068000651D0584670
:1014A00049464FF4BE72FEF7E1FE286837464646CD
:1014B000D4F8388030B95846494640F28312FEF7D6
:1014C000D5FE2868013828607FF456AF4FF0000A37
:1014D0008AF31188B8F1000F52E700BF4FF05000B7
:1014E00080F31188BFF36F8FBFF34F8F2968481CBB
:1014F000286049B9306800062DD0584649464FF457
:10150000BE72FEF7B3FE28683746A66B30B9584660
:10151000494640F28312FEF7A9FE28680138286088
:1015200002D1002080F31188002E3E464FF00007C4
:1015300017D020460EF098FE12F0BAFD4FF0000AC8
:1015400024E7A06B29604FF0000A8AF31188002875
:101550007FF41CAF0DE1A06B296087F31188002890
:10156000E7D1206800285AD14FF0500080F311884D
:10157000BFF36F8FBFF34F8F2868411C296040B9BC
:101580003068000605D0584649464FF4BE72FEF753
:101590006DFEA06850B349F20C63C2F20003C16A49
:1015A0001A68D26A914223D28269B246002A08D4CC
:1015B00049F20C62C2F200021268D26AC2F1200241
:1015C000826149F22466436901EB8102C2F200069E
:1015D00006EB820293423AD049F20C61C2F200015A
:1015E00009685646C96AC162012009E0002007E087
:1015F000C06C1968C96A88424FF0000038BF0120EA
:101600000190286830B95846494640F28312FEF7E7
:101610002DFE28680138286001D187F311880499CC
:10162000009811F059FC20460EF01EFE12F040FD0D
:1016300000284FF0000A7FF4A9AE4FF080503060D0
:10164000BFF34F8FBFF36F8F4FF0000A9EE6D0E9D4
:101650000226D3F804E09660C66800F1040CE64563
:10166000726008BF5E601A68013A1A601A685AB957
:101670004CF2C403C2F200031A68012707FA01F111
:10168000002722EA0101196049F20C61C2F200014F
:1016900009684CF2C406C96AC2F20006C1624FF082
:1016A000010E3268012301930EFA01F349F2246E10
:1016B0001A4301EB8101C2F2000E32600EEB81028F
:1016C000536842619E688360C6609E68C3F808C024
:1016D000C6F804C05EF82100564601304EF82100DD
:1016E0008FE70138A063206858B949F20C62C2F252
:1016F0000002106818B11068016D013101651068B1
:10170000A0602069D0B1E069C06812F055FCA8B1B2
:101710004FF080503060BFF34F8FBFF36F8F0DE0FD
:10172000019858B148F2805049F21831C0F60200D1
:10173000C0F6020140F23262FEF798FD286860B9F7
:1017400048F2805049F28231C0F60200C0F6020130
:1017500040F28312FEF78AFD28680138286002D023
:1017600005B0BDE8F08F002080F3118805B0BDE81A
:10177000F08F01980028F3D04FF0500080F31188CB
:10178000BFF36F8FBFF34F8F2868411C296070B97A
:10179000306800060BD048F2805049F28231C0F622
:1017A0000200C0F602014FF4BE72FEF75FFD009822
:1017B00049F20C670068C2F2000720B1206B006894
:1017C000C0F1200600E00026A468002CB6D0206DF1
:1017D00058B948F2805049F23B31C0F60200C0F6D9
:1017E000020141F29F02FEF741FDE16CE06AB14265
:1017F00088BF0E46B042A1D0216D01299ED1396823
:10180000A1420CD148F2805049F23B31C0F60200AF
:10181000C0F6020141F2BA02FEF728FDE06AA169B2
:10182000E66200295CBFC6F12001A16149F2246291
:10183000616900EB8000C2F2000202EB800081428D
:101840007FF47CAFD4E902324F689A60E268201DD1
:101850008742536008BF4A60002262610A68013A09
:101860000A6009680122002902FA06F106D14CF249
:10187000C403C2F200031A688A431A604CF2C4031C
:10188000C2F200031A681143196006EB860149F29F
:101890002466C2F2000606EB8102536862619F680B
:1018A000A360E7609F689860786056F82100013077
:1018B00046F8210042E7000049F20060C2F2000051
:1018C00000680021002211F00FBD000010B582B0A9
:1018D0000021009190F82410012900F028810122B4
:1018E000016880F8242051F8082F4CF2AC0CD20784
:1018F000C2F2000C61D1826A41F202139A430232B1
:10190000826240F2DC12C2F20002D2F800E041F240
:101910000402C4F20202136848F27054C3F3C223F3
:10192000C0F602041268E35CC2F3813202242EFA8C
:1019300003F304EB4202B3FBF2F2BEFBF2F25200FD
:101940000092009A8AB1009A013A0092009A62B11C
:10195000009A013A0092009A3AB1009A013A009234
:10196000009A12B1009A013AEAE7002201920A684D
:10197000D20740F081804DF68362C4F21B32AEFB89
:1019800002230A6842F001020A609A0C0192019A4D
:10199000002A44D0019A013A0192019A002A3ED0CD
:1019A000019A013A0192019ACAB3019A013A01924D
:1019B000019AA2B3019A013AE8E70B6823F0010308
:1019C0000B60DCF800300A68D20794D0DCF8002005
:1019D000D21A022A1AD80A68D2073FF48CAFDCF870
:1019E0000020D21A022A11D80A68D2073FF483AF26
:1019F000DCF80020D21A022A08D80A68D2073FF47D
:101A00007AAFDCF80020D21A032ADCD3816A41F0D5
:101A100010018162C16A41F00101C16284E0DCF819
:101A200000300A68D20727D1DCF80020D21A022A37
:101A300017D80A68D2071FD1DCF80020D21A022A70
:101A40000FD80A68D20717D1DCF80020D21A022A70
:101A500007D80A68D2070FD1DCF80020D21A032A6F
:101A6000DFD3826A42F010028262C26A42F001024F
:101A7000C262002280F824200A6842F008020A604C
:101A8000DCF800300A6812071DD5DCF80020D21AF5
:101A90000A2A3ED80A68120715D5DCF80020D21AA7
:101AA0000A2A36D80A6812070DD5DCF80020D21AA7
:101AB0000A2A2ED80A68120705D5DCF80020D21AA7
:101AC0000A2ADFD925E00A6842F004020A60DCF83D
:101AD00000300A68520720D5DCF80020D21A0A2A02
:101AE00017D80A68520718D5DCF80020D21A0A2A3B
:101AF0000FD80A68520710D5DCF80020D21A0A2A3B
:101B000007D80A68520708D5DCF80020D21A0B2A39
:101B1000DFD310216FF0120202E001216FF0030207
:101B2000836A1A4011438162002180F8241002B0B8
:101B300010BD000010B581B00022009290F8242062
:101B4000012A69D04B680122062B80F8242012D884
:101B5000D0F800C003EB83035A1F1F23DCF834E0E6
:101B600003FA02F40B682EEA040403FA02F2224399
:101B7000CCF8342022E0D0F800C00C2B03EB830219
:101B80000ED8233A1F23DCF830E003FA02F40B6886
:101B90002EEA040403FA02F22243CCF830200DE0CE
:101BA000413A1F23DCF82CE003FA02F40B682EEA1A
:101BB000040403FA02F22243CCF82C20092B03EB95
:101BC00043021CD9DCF80CE01E3A072489689440D3
:101BD0002EEA0404914023F001022143102ACCF89C
:101BE0000C1016D142F20841C4F20101A1F1080221
:101BF000944513D0816A41F02001816209E0DCF84C
:101C00001030072489689440A34391401943CCF8CD
:101C10001010002180F8241001B010BD0A681202D3
:101C2000F7D40A68102B42F400020A60F1D140F2A6
:101C3000DC11C2F2000109684DF68362C4F21B3266
:101C4000A1FB0212910C01EB810149000091009966
:101C50000029DED000990139009100990029D8D0DF
:101C600000990139009100990029D2D000990139D9
:101C7000009100990029CCD000990139E6E70000D5
:101C800070B58AB0002800F0E8800446806AB0BBD6
:101C9000002040F60005E062C4F20105216805F568
:101CA000E052914284F8240029D10590CDE9030047
:101CB000CDE9010041F21800C4F2020001680226D9
:101CC00041F400710160016801F400710691069908
:101CD000016841F004010160006800F00400069012
:101CE00006984FF4004002906846009600F060FBB2
:101CF0000320079006A92846069600F057FA2068A8
:101D00008168C90732D1A16AC9065DD4A16A41F2CE
:101D1000021291430231A16240F60001C4F20101B6
:101D2000E36901F55051414083F44022114308BF5B
:101D30004FF40023D4E901121943531EB3FA83F37D
:101D40005E091346B2F5807F18BF3302267D257BDE
:101D5000012E41EA450143D1D5B3A66A46F02006DB
:101D6000A662E66A46F00106E66239E0816821F083
:101D7000010181604CF2AC01C2F200010A68836883
:101D8000DB07C0D00B689B1A022B14D88368DB07D3
:101D9000B9D00B689B1A022B0DD88368DB07B2D031
:101DA0000B689B1A022B06D88368DB07ABD00B6845
:101DB0009B1A032BE3D3A06A40F01000A062E06AF4
:101DC00040F00100E062A06AA06A40F0100037E035
:101DD000A6694EF60005CFF6FF7505EB4636334390
:101DE0004668B2F5807F26F4694643EA06034360FD
:101DF00083684FF2FD76CFF6E17603EA060343EA05
:101E00000103836001D0012A06D122690023CFF6A5
:101E1000F07303EB025200E00022C36A23F4700364
:101E20001A43C262806840F6FE62CFF61F7210400D
:101E3000884208D10020E062A06A012161F301001C
:101E4000A0620AB070BDA06A40F0100020F002004D
:101E5000A062E06A40F00100E0620AB070BD0000DC
:101E600070B581B000224CF2AC0E0092C2F2000EAE
:101E7000DEF8006001688C68E4054FD44A68D2053A
:101E800003D4CA6A12F4700F6DD040F2DC1241F232
:101E9000040CC2F20002C4F2020C1268DCF800402A
:101EA00048F27055C4F3C224C0F602052C5DDCF87C
:101EB00000500223C5F3813522FA04F403EB4503F5
:101EC000B4FBF3F3B2FBF3FC0A6944F62413C2F249
:101ED00092431A4242F29242C1F2492206D1CB68A1
:101EE00044F62414C0F2920423425DD00B691342DD
:101EF00006D1CA6842F29243C0F249031A4261D045
:101F00000A6949F24924C0F2240422424FF0FC023B
:101F100059D1CB68234208BF542254E0816A41F072
:101F20002001816280F8242001B070BDDEF800201D
:101F3000921B0B2A79D20A68920717D4DEF8002088
:101F4000921B0A2A71D80A6892070FD4DEF8002083
:101F5000921B0A2A69D80A68920707D4DEF8002083
:101F6000921B0A2A61D80A689207DFD56FF0120225
:101F70000A60826A42F400728262896801F4602118
:101F8000B1F5602F01D1017B09B101B070BD816A4B
:101F900021F480718162816AC904F6D4816A41F0BA
:101FA0000101816201B070BD0B6913424FF029023B
:101FB00009D1CB6842F29244C0F24904234208BFDF
:101FC000142200E05422009B02FB0CF29342CDD27B
:101FD000DEF800309B1B0B2B27D2009B01330093B4
:101FE000009B9342C2D2DEF800309B1B0A2B1CD808
:101FF000009B01330093009B9342B7D2DEF8003080
:102000009B1B0A2B11D8009B01330093009B93422A
:10201000ACD2DEF800309B1B0A2B06D8009B0133A4
:102020000093009B9342D3D3A0E7816A41F004015F
:102030008162002180F8241001B070BD10B581B01C
:1020400090F82410012900F09B8000210091016884
:102050008A68D20758D18A684DF6836342F001023C
:102060008A6040F2DC12C2F200021268C4F21B3332
:10207000A2FB03239A0C00BF0092009A8AB1009A37
:10208000013A0092009A62B1009A013A0092009AD5
:102090003AB1009A013A0092009A12B1009A013ABC
:1020A000EAE74CF2AC0CC2F2000CDCF800308A68B3
:1020B000D20729D1DCF80020D21A022A17D88A6860
:1020C000D20721D1DCF80020D21A022A0FD88A6860
:1020D000D20719D1DCF80020D21A022A07D88A6860
:1020E000D20711D1DCF80020D21A022ADFD9816A86
:1020F00041F010018162C16A41F00101C162002119
:1021000080F8241001B010BD42F2044C826AC4F27F
:10211000010C40F201339A430CF57F7402F5807292
:10212000A14282622ED0826A22F4801282624A68C0
:10213000520504D5826A012363F30D328262826AFA
:102140004FF0000ED2044FF0000244BFC26A22F0EA
:102150000602C26280F824E06FF00200086088681E
:1021600000F46020B0F5602F06D1A14218D1DCF850
:10217000000010F4702F13D0886840F4801088603D
:1021800001B010BDDCF8002012F4702FCBD0826AB1
:1021900042F480128262DCF800205205CAD4CEE7F5
:1021A000886840F4A000886001B010BD2DE9F04FB0
:1021B00082B0D1F80080B8F1000F00F0F580A0F1F6
:1021C000804241F60046A2F58432C4F2010606259B
:1021D0004FEAB227B04208BF052540F2004E052F56
:1021E00038BF4FEAB225C4F2010E00950123002545
:1021F0004FF0010A4FF0000B54E000BF41F2180409
:10220000C4F2020422684FF6084342F00102226041
:102210002268CFF6FF7302F001020192019A2CF0BE
:1022200003027244D75805F00C0608FA06F4A743D7
:10223000009C04FA06F63743D7504E680123F20398
:10224000DEF8002054BF22EA090242EA0902CEF871
:102250000020DEF80420B70354BF22EA090242EA54
:102260000902CEF80420F702DEF8082054BF22EA63
:10227000090242EA0902B70240F20C47CEF80820F0
:10228000C4F201073A6854BF22EA090242EA09028D
:102290003A60D1F80080043538FA0AF20AF1010AEE
:1022A00000F08280AAF1010C03FA0CF918EA090F78
:1022B000EFD04E684FF6FF72C1F21002964213DC67
:1022C000122E58D84FF00F08DFE806F0380A464AB9
:1022D000585858585858585858585858584D5100E8
:1022E000D1F80CB04AE000BF4FF6FF72C1F22102F4
:1022F000964211DC0022C1F2110296424FF00F0803
:102300001CD00022C1F21202964217D00022C1F264
:102310002102964212D031E00022C1F222029642FE
:102320004FF00F080AD00022C1F23102964205D0C8
:102330000022C1F23202964220D100BF8A6842B127
:10234000012A14BFC0F81490C0F810904FF0080B89
:1023500014E04FF0040B11E0CA6802F1080B0DE025
:102360004FF0000B0AE0CA6802F1040B06E0CA68ED
:1023700002F10C0B02E04FF00F0800BF2A460646A0
:10238000BCF1080F24BF203A0436376808FA02F47B
:1023900027EA04040BFA02F222433260CA79D20619
:1023A0003FF52CAF012374E702B0BDE8F08F0000C9
:1023B00010B581B0017841F2200EC907C4F2020EB7
:1023C00069D05EF8041C11F0805C0BD15EF8041C2F
:1023D00041F080514EF8041C5EF8041C01F080515D
:1023E0000091009947F20003C4F200031968C9057F
:1023F00026D419684CF2AC0241F480711960C2F223
:10240000000211681C68E4051AD41468641A642C6C
:1024100014D81C68E40513D41468641A642C0DD80D
:102420001C68E4050CD41468641A642C06D81C6873
:10243000E40505D41468641A642CE3D901B010BD16
:10244000DEF8001011F4407114D0426802F44072BA
:1024500091420FD0DEF8001040F24043C4F2422314
:10246000012421F440721C600024C9071C60CEF8CE
:10247000002027D1DEF80010426821F4407111439A
:10248000BCF1000FCEF8001005D15EF8041C21F05D
:1024900080514EF8041C01688A0707D55EF81C2C91
:1024A000836822F440421A434EF81C2CC906C5D555
:1024B0005EF81C1C406921F4800108434EF81C0C96
:1024C00001B010BD4CF2AC03C2F200031A6841F235
:1024D000883100BFDEF80040A407CBD41C68A41AE2
:1024E0008C42ABD8DEF80040A407C3D41C68A41A01
:1024F0008C42A3D8DEF80040A407BBD41C68A41A01
:102500008C429BD8DEF80040A407B3D41C68A41A00
:102510008C42DFD992E70000B0B582B0002846D0E7
:10252000036841F20005D907C4F202050CD06968BE
:1025300001F00C01042940F0B1802968890303D51A
:102540004168002900F0D38199071BD5696811F013
:102550000C0F09D0696801F00C01082940F0BF8018
:102560006968C90300F1BB802968890703D501693F
:10257000012940F0F2812968426921F0F80141EA1D
:10258000C20129600178090713D40178490745D4AD
:10259000C169002900F0BA816A6802F00C02082AB9
:1025A00040F01581012940F0A481012133E301218C
:1025B00031E38169002900F0D9800021C4F2422171
:1025C0000122C1F880244CF2AC02C2F2000213686E
:1025D000696A890700F135811168C91A022900F278
:1025E0009282696A890700F12C811168C91A02294F
:1025F00000F2CA82696A890700F123811168C91A49
:10260000022900F2C382696A890700F11A81116800
:10261000C91A02294FF00301DAD9FCE2E96911F085
:10262000805C08D1E96941F08051E961E96901F014
:1026300080510091009947F20003C4F20003196829
:10264000C90500F1818019684CF2AC0241F4807137
:102650001960C2F2000214681968C90574D41168BF
:10266000091B642900F29A821968C9056CD41168A3
:10267000091B642900F29E821968C90564D4116897
:10268000091B642900F29A821968C9055CD4116893
:10269000091B64294FF00301DED9BCE2696801F02F
:1026A0000C01082903D16968C9033FF546AF4168A9
:1026B0004CF2AC0C0029C2F2000C00F0BB81B1F569
:1026C000A02F00F0EF81B1F5803F00F0EF81296885
:1026D00021F480312960296821F48021E9E1016930
:1026E000002940F20001C4F2422100F0D38001220F
:1026F0000A604CF2AC02C2F2000213682968890732
:102700003FF539AF1168C91A022900F24F822968D2
:1027100089073FF530AF1168C91A022900F25082CB
:10272000296889073FF527AF1168C91A022900F205
:102730004B82296889073FF51EAF1168C91A022923
:102740004FF00301DAD966E2C168002900F0078181
:10275000052900F03581012900F03681296A21F030
:1027600001012962296A21F0040130E10021C4F24B
:1027700042210022C1F880244CF2AC02C2F20002D5
:102780001368696A89077FF500AF1168C91A0229C1
:1027900000F20682696A89077FF5F7AE1168C91AE7
:1027A000022900F20982696A89077FF5EEAE116895
:1027B000C91A022900F20682696A89077FF5E5AE27
:1027C0001168C91A02294FF00301DAD923E240F255
:1027D000000EC4F2422E00224CF2AC0CCEF8602067
:1027E000C2F2000CDCF80030022940F09180296828
:1027F000890140F18A81DCF80010C91A022900F22F
:10280000ED812968890140F18081DCF80010C91A46
:10281000022900F2E7812968890140F17681DCF81C
:102820000010C91A022900F2E1812968890140F1EA
:102830006C81DCF80010C91A02294FF00301D6D9C7
:10284000E9E140F2DC11C2F20001096844F6D3521A
:10285000C1F26202A1FB0212510A019100BF01996B
:102860004A1E002901923FF490AE00BF01994A1E12
:10287000002901923FF489AE00BF01994A1E002948
:1028800001923FF482AE00BF01994A1E00290192D5
:10289000E4D17AE600220A604CF2AC02C2F20002F5
:1028A0001368296889077FF56DAE1168C91A022976
:1028B00000F28E81296889077FF564AE1168C91A14
:1028C000022900F28781296889077FF55BAE1168CC
:1028D000C91A022900F28081296889077FF552AE62
:1028E0001168C91A02294FF00301DAD993E10121D5
:1028F00091E16968026A01F48033934240F04281B9
:10290000406A01F47011814240F06081002182E14F
:10291000032128688001F9D5DCF80000C01A0228DC
:1029200000F25E8128688001F0D5DCF80000C01A52
:10293000022800F2598128688001E7D5DCF8000000
:10294000C01A022800F2548128688001DED5DCF824
:102950000000C01A0228DCD95DE101215BE1296A8F
:102960004CF2AC0321F001012962296AC2F2000392
:1029700021F0040129621A6841F28834296A890722
:102980004FD51968891AA14200F23481296A890752
:1029900047D51968891AA14200F22E81296A890750
:1029A0003FD51968891AA14200F22A81296A89074C
:1029B00037D51968891AA1424FF00301DED92AE1FF
:1029C000296A41F004012962296A41F001014CF2AF
:1029D000AC032962C2F200031A6841F28834296A02
:1029E00089071ED41968891AA14200F2D180296A88
:1029F000890716D41968891AA14200F2CD80296A84
:102A000089070ED41968891AA14200F2CB80296A7D
:102A1000890706D41968891AA1424FF00301DED94B
:102A2000F9E0BCF1000F7FF4B3ADE96921F080510A
:102A3000E961ADE5296821F480312960296821F434
:102A400080212960DCF800E0296889037FF57CADEE
:102A5000DCF80010A1EB0E01642900F2CF80296898
:102A600089037FF571ADDCF80010A1EB0E0164293C
:102A700000F2C880296889037FF566ADDCF8001094
:102A8000A1EB0E01642900F2BF80296889037FF55C
:102A90005BADDCF80010A1EB0E0164294FF00301DF
:102AA000D2D9B8E0296841F480212960296841F42D
:102AB00080312960DCF80020296889033FF544ADA6
:102AC000DCF80010891A642964D8296889033FF565
:102AD0003BADDCF80010891A642965D829688903A0
:102AE0003FF532ADDCF80010891A642960D82968F6
:102AF00089033FF529ADDCF80010891A64294FF0ED
:102B00000301D9D987E0032185E0016AB1F5803F4F
:102B100005D16A68836822F400321A436A606A68E1
:102B2000406A22F474121043084368600120CEF812
:102B30006000DCF80000296889013FF5E7AEDCF8A9
:102B40000010091A022961D8296889013FF5DEAE13
:102B5000DCF80010091A02295AD8296889013FF5C2
:102B6000D5AEDCF80010091A022953D8296889016A
:102B70003FF5CCAEDCF80010091A02294FF0030132
:102B8000D9D948E0012146E0032144E0032142E095
:102B9000032140E003213EE003213CE003213AE031
:102BA000032138E0032136E0032134E0032132E041
:102BB000032130E003212EE003212CE003212AE051
:102BC000032128E0032126E0032124E0012122E063
:102BD000032120E003211EE003211CE003211AE071
:102BE000032118E0032116E0032114E0032112E081
:102BF000032110E003210EE003210CE003210AE091
:102C0000032108E0032106E0032104E0032102E0A0
:102C1000032100E00321084602B0B0BD2DE9F04FCA
:102C20008BB0002800F0DA8004468069B0F5807F20
:102C300000F0D480009294F841000E4600283FD165
:102C4000002084F8400041F21800C4F2020050F85D
:102C5000041C41F2004741F4807140F8041C50F814
:102C6000041CC4F2010701F48071079107990168FF
:102C70000DF11C0841F020010160016801F0200104
:102C800007910799016841F04001016000684146E1
:102C900000F04000079007984CF203700790022064
:102CA00008900120099003200A903846FFF77EFA29
:102CB0004FF68070079007F580604146FFF776FA7F
:102CC000D4F80080A16804F1300E58F8212040F2B9
:102CD000800A22F0010248F82120D4E90420D4E936
:102CE00002130590A069D4E90A7B0490E0699EE88C
:102CF00000520390206A082A0690606ACFF6F07AA4
:102D00000190E06B029058F8210008BF43F04003A7
:102D1000059D00EA0A002B43049D2B43039D2B4392
:102D2000019D2B433B4343EA0B0343EA090343EA78
:102D30000C03069F43EA0E033B43029F3B431843A9
:102D4000104348F82100A068002708EB8000416884
:102D500033693268CFF6F07701F0404107EB035357
:102D600077681143B26841EA0711F76841EA022126
:102D700041EA07411943D6E90532114303F1FE0246
:102D800041EA02614160206B6168A268B0F5804F42
:102D900016D151F822000023CCF6F0731840009BA6
:102DA000D3E90076D3F818C0D3E90253384340EA98
:102DB000061040EA052040EA0C0040EA034301E027
:102DC0006FF0704341F82230A06858F8201041F0AD
:102DD000010148F82010012084F841000BB0BDE843
:102DE000F08F0000FEE70000B0B582B04DF28050D9
:102DF0004AF6BC21C0F60100C0F601010022002302
:102E000012F04EF946F6703546F67234C2F20005FD
:102E1000C2F2000429882288002013F0E1FF2988EB
:102E20002288002013F0F2FF40F27C20C2F2000062
:102E300090F94400002818D446F67630C2F200001B
:102E40000078A0B3042013F0A3F82A8840F63F7559
:102E500000200021BC23009513F036F8228840F6AC
:102E60005F75012000219B235CE046F67430C2F2BE
:102E70000000008846F6040188422BD045F210314C
:102E8000884227D041F6631188423ED140F21F3577
:102E9000002000214FF448720023009513F014F82D
:102EA00040F2DF15012000214FF4F07239E00120DB
:102EB00013F06EF82A8840F63F75002000219B230E
:102EC000009513F001F8228840F65F75012000217B
:102ED000BC2327E046F67630C2F2000001780120DC
:102EE000002918BF042013F053F82A88E225002097
:102EF000002140F65B73009512F0E6FF2288C4259E
:102F00000120002140F6E4630CE02A880020551ED1
:102F100000210023009512F0D7FF22880120551EC2
:102F200000210023009512F0CFFF02B0B0BD0000D9
:102F30009EB0002000F09EFB4EF2847846F6CA193F
:102F400046F6D41BC0F60108C2F20009C2F2000B1B
:102F50000020079007E000BF40F61040C4F20100D7
:102F60004FF08071016005F001FA04460FF05CFD3E
:102F700002462043F0D040F61040042CC4F2010079
:102F80004FF4807101600CD00799022C00F012837D
:102F9000012C40F02A83080600F03B830692013999
:102FA0001EE3079840F2E011C0B2C2F2000101EB4B
:102FB00000142046214610F808AF51F80C6F059018
:102FC00043F6B77004910AFB00F04FF0927106923D
:102FD000002E08BF464601EB8047304612F0A4FCA5
:102FE00054F8040F4FF4F071022213F043F8717E8D
:102FF0004FF49272B2FBF1F10E9790FBF1F540F2B3
:10300000E010C0F223100F90304612F08DFC3914FE
:1030100000204FF4F07240F223130B9711F0E4FFFD
:1030200020680EAF394600220223099412F086F977
:10303000404612F079FC48F290580D96367EC0F664
:1030400002083846414652462B460C950096FDF73D
:1030500019F9384600214FF4927212F041F94846AE
:1030600046F6C811057846F6CC10C2F20001C2F24D
:10307000000091F80090047802F03CFC16F089FF03
:1030800000230022C4F2590316F0BEFDCDE902016F
:1030900049F200413846C0F602014A462B460094E8
:1030A000FDF7F0F8384612F097F8ACE00D984EF2C4
:1030B0008475007EC0F6010514284DF2B451C0F6A7
:1030C000010108BF0D4610284FF63C30C0F6010044
:1030D00008BF0546504617F06DFB04460C9817F0E4
:1030E00069FB0146204617F087FA0446284612F08D
:1030F0001BFC099F4FF4F0713868022212F0BAFFEE
:10310000697E4FF49272B2FBF1F12A7E90FBF1F6E8
:103110000892304617F04EFB0146204617F076FB2A
:1031200016F06CFC17F02AFBC146DDF82C808246B5
:10313000C0F101004FF0927100FB01F41FFA88F01A
:1031400020440A900E9040F2E010C0F223100F903D
:1031500028460D9512F0E8FB0FFA88F021144FF481
:10316000F07240F22313C84611F03EFF38680EAFEC
:1031700039460022022312F0E1F84EF28470C0F6C4
:10318000010012F0D1FB0C963346089E38464946A2
:1031900052460096FDF776F8384600214FF49272B9
:1031A00012F09EF846F6C810C2F20000047846F607
:1031B000CA10C2F20000067846F6CC10C2F2000037
:1031C000057802F097FB16F0E4FE00230022C4F21B
:1031D000590316F019FDCDE9020149F200413846C4
:1031E000C0F60201224633460095FDF74BF83846FB
:1031F00011F0F2FF0A980B9040F61040C4F2010063
:103200004FF08071016005F0B1F804460FF00CFC3E
:103210008146204300F0CC8040F61040C4F201000B
:103220004FF4807101600D9D012C05D0022C5DD002
:10323000042C40F0B980C3E1BAF1020FC0F2B480AF
:103240000B9C40F2E010C0F2231004F192740F9036
:103250002846AAF1010A0E9412F066FB20B221144E
:103260004FF4F07240F223130B9411F0BDFE099855
:103270000EAF006839460022022312F05FF84EF2CA
:103280008470C0F6010012F04FFB2E7E0C9B384676
:10329000414652460096FCF7F5FF384600214FF4B0
:1032A000927212F01DF846F6C810C2F200000678BD
:1032B00046F6CA10C2F20000047846F6CC10C2F2FC
:1032C0000000057802F016FB16F063FE00230022D2
:1032D000C4F2590316F098FCCDE9020149F200410D
:1032E0003846C0F602013246234657E00C9CA24500
:1032F0005ADA0B9E40F2E010C0F22310A6F192764B
:103300000F9028460AF1010A0E9612F00DFB30B21A
:1033100031144FF4F07240F223130B9611F064FE57
:1033200009980EAF006839460022022312F006F811
:103330004EF28470C0F6010012F0F6FA2E7E384686
:103340004146524623460096FCF79CFF3846002132
:103350004FF4927211F0C4FF46F6C810C2F200009A
:10336000047846F6CA10C2F20000067846F6CC1081
:10337000C2F20000057802F0BDFA16F00AFE002342
:103380000022C4F2590316F03FFCCDE9020149F2D4
:1033900000413846C0F60201224633460095FCF74C
:1033A00071FF384611F018FFB9F1000F7FF47EAEBF
:1033B00049F6A600C2F200000078072601287FF433
:1033C0001BAFCDF828A0C246002400254FF0060907
:1033D00001270DF1380800BF58464146CDE90E9748
:1033E0001096FEF7A7FB5846FEF728FE5846FEF754
:1033F00037FDDBF80000C06C80B20544052003F007
:103400002BFC092C04F10104E6D348F21F50C5F24D
:10341000EB10A5FB00016422A2EBD110B2EBD11F8F
:103420004FF0000138BF0846092849F6A6004FF0C2
:103430000009C2F2000088BF4FF0010901704EF28E
:103440008470C0F60100474612F06EFA0D980A9A91
:10345000067E0C9B404651460096FCF713FF404603
:1034600000214FF4927211F03BFF46F6CA10C2F2EF
:10347000000046F6C81A047846F6CC10C2F2000ADC
:10348000C2F200009AF80060057802F033FA16F0F4
:1034900080FD00230022C4F2590316F0B5FBCDE9EC
:1034A000020149F200414046C0F60201324623467D
:1034B0000095FCF7E7FE4046454611F08DFE46F6C6
:1034C0007110C2F200000078484506D148F29058C9
:1034D000DDF828A0C0F602088EE612F01BF8C04303
:1034E00012F006FA12F048F8C04312F00CFA11F08C
:1034F0006CFD40F2E0100D9E0B9CC0F223100F906B
:1035000030460E9412F010FA20B221144FF4F072EB
:1035100040F2231311F068FD099829460068002243
:1035200002232C4611F00AFF4EF28470C0F601000F
:1035300012F0FAF948F290580A9F367EC0F6020857
:103540000C9B284641463A460096FCF79BFE2846CF
:1035500000214FF4927211F0C3FE46F6CA10C2F277
:103560000000067846F6CC10C2F200009AF800403F
:10357000057802F0BFF916F00CFD00230022C4F21A
:10358000590316F041FBCDE9020149F200410EA8B2
:10359000C0F60201224633460095FCF773FE0EA8E2
:1035A00011F01AFE46F67110C2F20000BA4680F819
:1035B000009021E6C8B2062817D8069201310FE024
:1035C000059880F800A00498056011F0FEFC4EF20A
:1035D000847846F6CA190799C0F60108C2F20009B4
:1035E000C8B2079100F046F8069A002A3FF4B4AC3E
:1035F00011F090FFC04312F07BF911F0BDFFC04302
:1036000012F081F911F0E1FC0798C0B200F032F835
:10361000A2E400200790002AEAD19DE4FEE7000022
:1036200070470000000000000000000000000000E3
:10363000EFF30980BFF36F8F0D4B1A6820E9F00F8D
:1036400010602DE908404FF0500080F311880FF012
:1036500079FD4FF0000080F31188BDE8084019683B
:103660000868B0E8F00F80F30988BFF36F8F7047E8
:103670000C9600202DE9F04F89B04DF27005C0F690
:1036800001058146284612F04FF939A0F0210022A9
:1036900011F03AFE6D7E0020294611F0B5FF4FF67D
:1036A0003C30C0F6010012F03FF9C5F5847446F6CF
:1036B00070106609C2F20000B9FBF6F70078874285
:1036C0000CD0002029464FF4F0724FF4927311F0A1
:1036D0008BFC46F67010C2F200000770E82D11D97D
:1036E0004EF28470C0F6010012F01EF926A00021EF
:1036F0004FF4847211F0F4FD30A011F06DFD09B0AB
:10370000BDE8F08F0127012E88BF6709C9F1000AC3
:1037100000240FF2680901AD17E000BF40F2E0128B
:103720004FEA0811C2F2000206FB0BF001345358B5
:10373000221828464946FCF7A5FD284611F04CFD05
:10374000002012F031F9A742CAD046F67010C2F23A
:10375000000090F800B006FB0B48B8F1070FBFD887
:1037600018EB0A00DAD1012012F01EF9D6E700BFEB
:10377000452D526561646572000000002530336498
:103780002025730A000000003C2F3E20E68C89E9CA
:1037900094AE302F312DE58887E68DA2E4B9A6E7F7
:1037A000B18D207C20E995BFE68C892DE5BFABE982
:1037B000809FE58887E68DA2200000000A2858290E
:1037C00020E68C89E994AE322DE8BF9BE585A5E91A
:1037D0009885E8AFBB207C20E8A7A6E691B8E68CE8
:1037E00089E994AE2DE58887E68DA2E4B8BBE9A20D
:1037F0009820000070B584B046F63826C2F2000664
:1038000034686068C00704D00CF004FF6FF001005A
:1038100060606068800727D56FF00200606046F640
:10382000CE10C2F20000018846F6D010C2F20000AD
:10383000027846F6D210C2F20000037846F6C810AD
:1038400046F6CA14C2F20000C2F2000446F6CC15D5
:1038500000782478C2F200052D78CDE900040BA091
:103860000295FCF703FD34686FF004006060606847
:10387000800609D4606880065CBF60685FEA80608B
:1038800002D460688006F2D504B070BD416C6172EC
:103890006D2054696D653A25642D25642D256420BD
:1038A00025643A25643A25640A00000000000000FF
:1038B000074B19680868B0E8F00F80F30988BFF378
:1038C0006F8F4FF0000080F311884EF00D0E70479F
:1038D0000C9600202DE9F04F97B041F21804C4F285
:1038E000020454F8040C40F6000840F0400044F88C
:1038F000040C54F8040C40F6204700F040000990F6
:103900000998C4F20108C4F2000711F08DFE12F00C
:1039100045FB11F05AFB04F0CBFC2068022540F077
:10392000040020602068002600F004000990099837
:10393000606809A940F0080060606068012400F038
:1039400008000990099840460995CDE90A650C944C
:10395000FEF72CFC46F6E023A7F12001C2F200039B
:103960004FF6FF7083E85200C3E9030693F83D1059
:10397000002908BF83F83C6083F83D5057F8201CAD
:103980009A6921F47C71114347F8201CF860BC60EF
:1039900047F80C4C83F8464083F83E4083F83F409C
:1039A00083F8404083F8414083F8424083F8434025
:1039B00083F8444083F8454083F83D4093F83C0049
:1039C00001281CD0386820F01000386057F8080C27
:1039D000396820F4734000F5807021F0A00147F8A9
:1039E000080C396057F8080C20F4406047F8080CC0
:1039F00057F8080C47F8080C002083F83C00022018
:103A000083F83F0083F84300386820F010003860E6
:103A1000386840F01000386057F8180C00F00700C4
:103A2000062805D057F8200C40F0010047F8200C7C
:103A300007F1180040F6000746F6E02400254FF095
:103A400001084FF60B694FF0000B0226C4F2010784
:103A5000C2F2000402900CE00298006809A921F863
:103A60001B000A2003F0F8F80BF1010BBBF10A0F61
:103A700038D00DF10C0A38465146CDE90368CDE93E
:103A80000588FEF793FB4FF400303861052003F002
:103A9000E3F820685146056145623846CDE9036583
:103AA000CDE90558FEF782FB21684FF60C6301F162
:103AB00024000A695207CFD402684A45CDD80A6962
:103AC0005207C9D402684A45C7D80A695207C3D405
:103AD00002684A45C1D80A695207BDD402689A42B1
:103AE000E7D3BAE7BDF82410BDF82600814205D916
:103AF0008C46ADF82400ADF8261001E08446084657
:103B0000BDF828201546904288BF0546BDF82A100A
:103B100038BF02468A42ADF8285005D91446ADF8A0
:103B20002410ADF82A2001E00C461146BDF82C0007
:103B30000346814288BF0B46BDF82E2038BF084699
:103B40009042ADF82C3005D90646ADF82420ADF8EA
:103B50002E0001E016460246BDF8301008468A42A3
:103B600088BF1046BDF8327038BF1146B942ADF873
:103B7000300005D98946ADF82470ADF8321001E067
:103B8000B9460F46BDF834201146974288BF3946E2
:103B9000BDF8368038BF3A464245ADF8341082BF92
:103BA000ADF82480ADF836209046AC458FBFADF817
:103BB00028C02A4665469446A54205D92F46ADF849
:103BC0002640ADF82A5001E027462C469C4287BF8C
:103BD000ADF82C40A2469A462346B34287BFADF8C3
:103BE0002E301A4632461E46864205D93346ADF877
:103BF0002600ADF8306001E003463046484587BFF7
:103C0000ADF832008346CB468146894587BFADF883
:103C10003490CE468E464946414586BFADF8268053
:103C2000ADF836104146BC458FBFADF82AC060469E
:103C3000BC460746574587BFADF82C703E465646F2
:103C4000BA46924505D95046ADF82820ADF82EA0C9
:103C500001E0104652469A4287BFADF83020144624
:103C60001C4613465B4587BFADF832309946D946AE
:103C70009B46F34587BFADF834B05A467246DE46E0
:103C80008E4509D98A46ADF82810ADF836E0B4451E
:103C900006D8B046664608E0F2468E46B445F8D9E6
:103CA000E046ADF82A60ADF82CC0864287BFADF87B
:103CB0002E60334603463046A04287BFADF8300041
:103CC0000546254604464C4587BFADF83240274699
:103CD0004F46A146914587BFADF834904C461446F7
:103CE0004A46724505D9F446ADF82AE0ADF83620CB
:103CF00001E094467246984587BFADF82E8046464F
:103D00001E464346AB4287BFADF8303019462946C0
:103D10001D46BD423B4688BF2B4638BF2F46A742B3
:103D2000204688BF384628BF2746974287BFADF850
:103D30002C209646BE4617468E420C4688BF344617
:103D400038BF3146994287BFADF832100E461E4645
:103D50000B46834287BFADF834301D4605461846F2
:103D6000B84205D93946ADF82E70ADF8360001E0FD
:103D700001463846B442334688BF234638BF2646FC
:103D8000AE4287BFADF8305032462A4635468542AE
:103D9000044638BF2C4688BF2846934238BF1A468F
:103DA000824228BF02460CEB0A00704408442044BB
:103DB000104480B24AF6AB21484346F62834800CC2
:103DC000C2F200042080218840F2200946F604480F
:103DD0000FF2C870C4F20E29C4F20008FCF746FACC
:103DE00041F2180A2088C4F2020ADAF8000040F60C
:103DF000000540F00800CAF80000DAF80000C4F23C
:103E0000010500F00800099009984FF480700990AE
:103E1000032001240C9005F5806009A9CDE90A442E
:103E2000FEF7C4F94FF08070C5F81004DAF804000A
:103E300046F6382640F08050CAF80400DAF804004C
:103E4000C2F2000600F0805009900998DAF80400E8
:103E500047F6FF7240F00060CAF80400DAF8040088
:103E6000002100F0006009900998C9F80040D8F8D6
:103E7000000040F62040C4F2000000F5DF50C6E923
:103E80000002B160727CA2BB40F23C40C4F242200E
:103E900031740460DAF80800C82440F00100CAF860
:103EA000080000BFDAF8080080070BD40520013CA9
:103EB00002F0D2FE2004F5D145F251044FF4007710
:103EC000082004E045F250044FF480770420099064
:103ED00000200125109009A80C95FEF71DFB03A8F2
:103EE000CDE90357FEF764FAC9F80050C8F800405E
:103EF000306802217174014651F8042F22F0080243
:103F00000A604CF2AC02C2F2000217680D68136836
:103F10002D0700F14A81DB1BB3F57A7F1AD80D68B3
:103F200013682D0700F14181DB1BB3F57A7F11D8AF
:103F30000D6813682D0700F13881DB1BB3F57A7F1C
:103F400008D80D6813682D0700F12F81DB1BB3F52E
:103F50007A7FDBD90420707440F60006C4F20106B3
:103F600046F6042506F5E050C2F200050027C5E933
:103F700000074FF001094FF460282846AF602F7307
:103F8000C5F810902F75C5E90678FDF779FE28462B
:103F9000FDF79CFC28680324816841F400018160DE
:103FA000DAF8000013A940F08000CAF80000DAF83F
:103FB000000000F08000099009984FF48070139081
:103FC00006F5A0501494FEF7F1F80E97CDE90C77A2
:103FD000CDE90A77DAF80000022540F00400CAF8BB
:103FE0000000DAF8000000F0040003900398DAF80B
:103FF000000040F40040CAF80000DAF8000000F4C5
:104000000040039003984FF400400B9009A80995D5
:10401000FEF7CEF903A93046CDE90354FEF7C6F802
:1040200046F6D41406F55050C2F20004C4E9000765
:104030002046A7602773C4F810902775C4E9067856
:10404000FDF71EFE2046FDF741FC2C200CF0C0F9C8
:104050004CF2C81640F2C4254CF2C418044600289D
:10406000C2F20006C2F20005C2F2000800F0FC80B5
:1040700084F828704FF0500080F31188BFF36F8FE1
:10408000BFF34F8F2868411C296090B94EF6045049
:10409000CEF20000006800060BD048F2805049F2D2
:1040A0008231C0F60200C0F602014FF4BE72FCF786
:1040B000DDF8306860BB4CF2C800C2F200004FF07F
:1040C000FF3102464CF2DC0742F8081FC2F200073B
:1040D0004260C0E9032200223B46026043F8081F09
:1040E00049F21061C2F200017B60C7E903333A6014
:1040F000086049F22060C2F200000760052010212C
:1041000000220FF065F80028306018BF0EF08CFD1B
:10411000286860B948F2805049F28231C0F6020046
:10412000C0F6020140F28312FCF7A0F828680138BB
:10413000286002D1002080F311880FF278402060BF
:104140004FF47A700021C4E9051094F8280044F275
:104150000572C0F6000240F00400E161226284F8BA
:104160002800D8F800708DE01768FF1AB7F57A7F3D
:104170003FF6F0AE0F68BF061AD41768FF1AB7F5FE
:104180007A7F3FF6E7AE0F68BF0611D41768FF1AB3
:10419000B7F57A7F3FF6DEAE0F68BF0608D4176822
:1041A000FF1AB7F57A7F3FF6D5AE0F68BF06DBD5AD
:1041B0000B6843F010030B600B6823F007030B60E0
:1041C000B3682BB1D8F82C7027F00107C8F82C7011
:1041D000D8F8287027F460773B43C8F82830736814
:1041E0005F1C0AD1DAF8083040F202371F40B7F5F9
:1041F000817F40F0BA8147F6FF73876827F00F0789
:1042000047EA13478760C76863F30F07C7604368CF
:1042100023F01003436013680F68BF0600F1388174
:104220001768FF1AB7F57A7F3FF694AE0F68BF069E
:1042300000F12E811768FF1AB7F57A7F3FF68AAE34
:104240000F68BF0600F124811768FF1AB7F57A7F5F
:104250003FF680AE0F68BF0600F11A811768FF1A9B
:10426000B7F57A7FD8D975E648F2805049F25E31C9
:10427000D8F80070C0F60200C0F6020140F28B12BE
:10428000FBF7F4FF30684CF29018C2F2000898B1C6
:104290000121CDE909170B94D8F8001029B14CF28F
:1042A000BC01C2F20001096809B1002201E04FF02F
:1042B000FF3209A90FF018F842F631700027C0F656
:1042C0000000BEA14FF4A062012300970FF068FA2E
:1042D0004FF0500080F31188BFF36F8FBFF34F8F03
:1042E0002868411C296090B94EF60450CEF20000B7
:1042F000006800060BD048F2805049F28231C0F6C7
:104300000200C0F602014FF4BE72FBF7AFFF49F2A4
:104310000C67C2F200073C68D4E90202616982605E
:10432000E26850604B68201D834208BF4A6000224B
:1043300062610A68013A0A600968A9B9E16A49F24A
:10434000246301EB8102C2F2000353F822205AB920
:104350004CF2C403C2F200034FF0010C1A680CFACD
:1043600001F122EA01011960A16A81B1D4E90732A1
:1043700004F118069A60226A53604B68B34208BF82
:104380004A600022A2620A68013A0A6009684CF297
:10439000C001C2F200010A6801320A6039688C4229
:1043A00011D04CF2B400C2F2000001680139016082
:1043B00049F21460C2F2000001680968D1B10068D6
:1043C000C068006818E04CF2B011C2F200010A683F
:1043D0004B68A3609E68E6609E6870609860501CA1
:1043E000616108604CF2B800C2F20000016801315E
:1043F000016006E04FF0FF304CF22811C2F20001DC
:104400000860286860B948F2805049F28231C0F6ED
:104410000200C0F6020140F28312FBF727FF286872
:104420000138286002D1002080F311883868844266
:1044300005D0206B0EF070FB20460EF06DFBD8F817
:10444000000010B13868844202D017B0BDE8F08F88
:104450004CF2BC00C2F20000006858B148F2805033
:1044600049F23B31C0F60200C0F6020140F2DC42E4
:10447000FBF7FCFE4EF60450CEF200004FF08051E8
:104480000160BFF34F8FBFF36F8F17B0BDE8F08FA0
:104490000022F27340F20112A6F80D20012272747C
:1044A000DAF8043043F08053CAF80430DAF8043004
:1044B00003F080530993099BDAF8043043F000635A
:1044C000CAF80430DAF8043003F000630993099B5A
:1044D000C9F8002042F60402C4F20002136843F057
:1044E0001003136045F2EC63936146F24943536154
:1044F000136823F0100313600A68920609D40A684F
:1045000092065CBF0A685FEA826202D40A68920679
:10451000F2D501684FF0FF3241F0010101604EF623
:104520000450CEF200008068C0F3022080F0070142
:10453000042928BF0421033802FA01F14FF00202D6
:1045400038BF002022EA010101FA00F04EF20341D7
:104550000001CEF2000108704EF20010CEF2000011
:10456000082101600CF056F8F6E403F44073B3F54B
:10457000407F0BD0B3F5007F7FF4ECACDAF80C3061
:104580009B077FF5E7AC49F63F4336E65AF8183CFF
:104590009B037FF5DFAC4FF223432EE6675F747019
:1045A00061645F64656661756C745F76616C3A2501
:1045B000640D0A0054696D65720000004C63645418
:1045C00061736B0080B54CF2AC00C2F20000016870
:1045D000013101604CF29010C2F200000068002826
:1045E00008BF80BD4CF2BC00C2F2000000684FF072
:1045F000500080F31188BFF36F8FBFF34F8F0FF020
:1046000089FB30B14EF60450CEF200004FF08051DD
:104610000160002080F3118880BD00007047000019
:1046200010200168890709D50C210968890705D57B
:1046300010216FF002020A60182109680068400723
:1046400009D50C200068400705D510206FF0040143
:1046500001601820006810200168090709D50C21A5
:104660000968090705D510216FF008020A601C21AE
:1046700009680068C00609D50C200068C00605D589
:1046800010206FF0100101601C20006810200168EC
:10469000C90713D00C210968C9070FD010216FF08A
:1046A00001020A6041F60C01C4F201010A6802F03D
:1046B000200242EA024282F020024A6000680006BC
:1046C00007D50C200068000642BF10206FF0800163
:1046D000016010200168490607D50C2109684906C8
:1046E00042BF10216FF040020A600068800658BF88
:1046F00070470C200068800642BF10206FF0200138
:104700000160704749F6A600C2F200000121017065
:1047100070470000406A0021C185C18470470000D5
:104720002DE9F04146F62C35C2F200052C6846F61C
:104730004C282068E668636900F02F0206F020012B
:10474000202AC2F2000812D189B195F83A00222835
:1047500040F0D881A968B1F5805F39D12969A86A8C
:10476000D1BB61686FF35F2120F8021B43E00207B1
:104770001EBF03F0010306F4907717EB03072DD15A
:10478000010616D516F0800113D095F839002128BE
:1047900040F0B881A968286AB1F5805F5FD12969C6
:1047A00000295CD130F8021B6FF35F216160286241
:1047B00059E0400640F1A68116F0400000F0A281C9
:1047C000E06820F04000E060202085F8390099E1A1
:1047D0002A69A86A114309D161680AE0C70718BFAE
:1047E00016F480774ED1470752D456E0616801F045
:1047F0007F0100F8011BA862E88D01380104E885FB
:1048000040F08081E06820F02000E060E06820F463
:104810008070E060606920F00100606143F6000094
:10482000C4F2010084424FF0200085F83A0040F0C5
:10483000698146F66C30C2F20000B0F90010002920
:1048400000F160818AB298F80030510400F1A7802D
:104850000D2B40F0B88042F48041018052E1411CB0
:10486000296200786060E88C01380104E88440F037
:104870004981E06820F08000E060E06840F040009E
:10488000E0603FE1EF6B47F00107EF63470704D5B6
:104890001BB1EF6B47F00207EF63870704D51BB12D
:1048A000EF6B47F00407EF63002A09D541EA0302E2
:1048B000B2FA82F2520903D1EA6B42F00802EA63CB
:1048C000EA6B002A00F01E8110F0200018BF0029BA
:1048D00054D16069E96B00F0400001F00801401814
:1048E00049D0E06820F49070E060606920F0010039
:1048F0006061202085F83A006069400640F102813D
:10490000606920F040006061686B002800F0FA8068
:1049100090F8211044F21572C0F600020229426399
:104920004ED1026804211368C4F2020123F00E0381
:104930001360136801F17C07BA4223F0010313608E
:104940007ED940F20843C4F202039A4200F0AB80E1
:1049500040F21C43C4F202039A4200F0A88040F2E5
:104960003043C4F202039A4240F0A5804FF48073B2
:10497000C1F80034C1E00020E863C3E095F83A00D4
:104980002228A6D1A968B1F5805F13D12969A86A48
:10499000A1B961686FF35F2120F8021B1EE048F2A5
:1049A00000060021CFF6FF760A2B08BF42EA060177
:1049B0000180A7E02A69A86A11430AD161680BE067
:1049C000042181639CE0511CC62A88BF002101801C
:1049D00098E0616801F07F0100F8011BA862E88D92
:1049E00001380104E8857FF474AFE06820F020000E
:1049F000E060E06820F48070E060606920F0010011
:104A0000606143F60000C4F2010084424FF02000D0
:104A100085F83A007FF45DAF46F66C30C2F20000D4
:104A2000B0F9001000293FF554AF8AB298F8003071
:104A300051044ED40D2B40F0998042F4804199E00E
:104A40004323C4F202039A420EDD6B23C4F2020335
:104A50009A421BDC4423C4F202039A4243D05823F7
:104A6000C4F202039A4231E00823C4F202039A42DC
:104A70003CD01C23C4F202039A4239D03023C4F242
:104A800002039A4222D14FF4807235E06C23C4F2C3
:104A900002039A422ED08023C4F202039A4215D117
:104AA0004FF0807228E00123C1F8003425E0102384
:104AB000C1F8003421E001F588674FF48033BA4231
:104AC00008BF4FF48053C1F8003416E04FF4803231
:104AD00012E048F200070021CFF6FF770A2B08BF4B
:104AE00042EA070146E04FF4805205E0012203E06C
:104AF000102201E04FF480120A604FF480710184AB
:104B0000FFF708FE95F8380095F83A10202901D1F2
:104B1000012811D195F83A10202901D101280BD193
:104B200095F83A10202901D1012805D195F83A10BD
:104B30002029E9D10128E7D00120C5F82880A885DF
:104B4000E88500202221E86385F83A1085F83800CE
:104B5000E06840F48070E060606940F001006061EE
:104B6000E06840F02000E060BDE8F081511CC62AFA
:104B700088BF00210180ACE6FEE700002DE9F04F80
:104B800089B0CDE90532139A0891511E1F29019071
:104B900000F238841298DDF854B00290DFE811F08A
:104BA0002000E2003204D801320432043204D1027F
:104BB00032043204320432043204320432048903EF
:104BC0003204320432043204320432043204320435
:104BD0003204320432043204320432043204E50373
:104BE00012980128C0F20E841698089900220844F1
:104BF000039009E0049A1298013282421498DDF879
:104C00001CB0834400F0FE830698179902EB00085D
:104C100040F21C00C2F200000068D1F800A0007C45
:104C20004968CDF81CB0089100F00300079F04927A
:104C3000DFE800F042027002019800698068804756
:104C4000059CDDF85890DDF80CB0BA4608900DE0F0
:104C500009F10100B0F1080918BF8146082808BF12
:104C60000AF1010A013C0BF1010BC3D09AF80000D4
:104C700000FA09F00006EBD51FFA8BF71FFA88F54A
:104C80003846294606F01AFC0899464680EA01088B
:104C90003846294606F070FC46F67830C2F200002D
:104CA000008840F60001C6F6004121F8020CA1F888
:104CB0000080B046CCE700BF059C169D039800BF5E
:104CC0003E4616F8011B00F1010BA9400906DDF86C
:104CD000209080B21FFA88F158BFD14606F04CFCF4
:104CE00046F67830C2F20000008840F60001C6F6B1
:104CF000004121F8020C681CB0F10805A1F80090F1
:104D000018BF0546082808BF3746013C5846D7D18A
:104D100070E700BF059C169E039D0CE0701CB0F16F
:104D2000080618BF0646082808BF0137013C05F1F0
:104D300001053FF45FAF3878B0400006EED5A8B269
:104D40001FFA88F106F018FC46F67830C2F200002F
:104D5000008840F60001C6F6004121F8020C0898D0
:104D60000880DBE712980128C0F24C831698089956
:104D700000220844019009E0039A1298013282420D
:104D80001498DDF81CB0834400F03C8340F21C0012
:104D9000C2F2000000680699007C9BF8008000F0D9
:104DA0000300022811440392CDE907B168D000281E
:104DB000E2D11798DDF814B000280798019DDDF8BE
:104DC00058A081465C462E465746049004D12EE0FA
:104DD000013C06F10106CFD07800C022062122FA5C
:104DE00000F0A1EB470100EA0800C840179951F80C
:104DF00020500899B0B289B206F0BEFB46F6783072
:104E0000C2F20000008840F600010137C6F60041FA
:104E1000042F21F8020C0D80DAD119F8018F002738
:104E2000D6E700BFBBF1010B05F10105A4D04FEAA5
:104E30004A00C022062122FA00F0A1EB4A0100EA52
:104E4000080020FA01F40899A8B289B206F094FB90
:104E500046F67830C2F20000008840F600010AF100
:104E6000010AC6F60041BAF1040F21F8020C0C80C9
:104E7000D8D104984FF0000A10F8018F0490D1E7C0
:104E80001798059E00280198169D5F46B1468246F8
:104E90002C46CDF810B0834606D132E0B9F10109B5
:104EA0000AF1010A3FF468AF6000C022062122FA2D
:104EB00000F0A1EB440100EA0800C84014D01799A3
:104EC00051F8205008991FFA8AF089B206F054FB75
:104ED00046F67830C2F20000008840F60001C6F6BF
:104EE000004121F8020C0D800134042CD6D117F8B2
:104EF000018F0024D2E700BF013E0BF1010B3FF40C
:104F00003BAF6800C022062122FA00F0A1EB450168
:104F100000EA080030FA01F411D008991FFA8BF06A
:104F200089B206F029FB46F67830C2F2000000880C
:104F300040F60001C6F6004121F8020C0C80013554
:104F4000042DD9D10498002510F8018F0490D3E7DF
:104F500012980128C0F25682169808990022084437
:104F6000019009E0039A1298013282421498DDF808
:104F70001CB0834400F0468240F21C00C2F20000E4
:104F800000680699007C9BF800A000F0030002284E
:104F900011440392CDE907B168D00028E2D11798F7
:104FA000DDF814B000280798019DDDF85890804680
:104FB0005E462C464F46049004D12EE0013E04F19B
:104FC0000104CFD0B800F022042122FA00F0A1EBB6
:104FD000870100EA0A00C840179951F82050089943
:104FE000A0B289B206F0C8FA46F67830C2F20000E4
:104FF000008840F600010137C6F60041022F21F873
:10500000020C0D80DAD118F801AF0027D6E700BFF7
:10501000BBF1010B05F10105A4D04FEA8900F02294
:10502000042122FA00F0A1EB890100EA0A0020FA2B
:1050300001F40899A8B289B206F09EFA46F67830D3
:10504000C2F20000008840F6000109F10109C6F62D
:105050000041B9F1020F21F8020C0C80D8D104985C
:105060004FF0000910F801AF0490D1E71798059EA2
:10507000019C169D00285F46B0465846A346A946A7
:10508000049007D137E000BFB8F101080BF1010B24
:105090003FF468AF4FEA8900F022042122FA00F0C1
:1050A000A1EB890100EA0A00C84014D0179951F811
:1050B000204008991FFA8BF089B206F05DFA46F697
:1050C0007830C2F20000008840F60001C6F60041C8
:1050D00021F8020C0C8009F10109B9F1020FD3D1BA
:1050E00017F801AF4FF00009CEE700BF013E04F111
:1050F00001043FF437AFA800F022042122FA00F0A7
:10510000A1EB850100EA0A0030FA01F710D00899F6
:10511000A0B289B206F030FA46F67830C2F200004A
:10512000008840F60001C6F6004121F8020C0F800D
:105130000135022DDAD10498002510F801AF049052
:10514000D4E712980128C0F25D81059840F6000A64
:105150000130C6F6004A0390ABF10100002207902F
:105160000BE000BF049A129801321499824207980A
:105170008B440844079000F0458140F21C00C2F2C5
:10518000000000680699007C02EB010900F00300B2
:105190000228049224D00028E4D11798002848D08F
:1051A0000598039FDDE907650128DBDB16F8010F91
:1051B000179951F82040A8B21FFA89F106F0DCF9DE
:1051C00046F67830C2F200000088013F012F05F159
:1051D00001052AF8020CAAF80040E7D8C2E700BF90
:1051E0001798002842D005980128BBDBDDF80C8019
:1051F000002606E0A8F10108B8F1010F06F101064A
:10520000B0D91BF806000028F4D0179951F82040B7
:1052100008981FFA89F1304480B206F0ADF946F6DD
:105220007830C2F2000000882AF8020CAAF8004088
:10523000E0E70598039DDDE90767012892DB00BFE1
:1052400016F8014FB8B21FFA89F106F095F946F643
:105250007830C2F200000088013D012D07F10107FE
:105260002AF8020CAAF80040EAD87BE70598012842
:10527000FFF678AF039F002606E000BF013F012F35
:1052800006F101067FF66EAF1BF80650002DF5D033
:1052900008981FFA89F1304480B206F06DF946F69D
:1052A0007830C2F2000000882AF8020CAAF80050F8
:1052B000E4E712980128C0F2A580059840F60004A2
:1052C000C6F60044002840F38880451E00F003071E
:1052D000811EA0F10309089846F6783A4FF00008BD
:1052E00086B2C2F2000A079108E000BF129808F1E6
:1052F000010880451498834400F084800698404457
:1053000081B2304606F038F9BAF8000024F8020CF1
:105310000599584677B1584630F8021B012F218075
:10532000294607D0BBF80200022F208014D107992C
:105330000BF10400032DD9D30139083830F8082FB8
:1053400004392280428811F1020F22808288228053
:10535000C2882280F2D3C9E7BBF804004946208006
:105360000BF10600032DC1D3E6E71298012849DBB3
:105370000598012846DB059840F60004ABF10407C8
:1053800046F6783BC6F6004401304FF0000AC2F200
:10539000000B05900698059DDDF820800AEB0006BD
:1053A000079700BF57F8049F1FFA88F0B1B206F0C4
:1053B000E3F8BBF80000013D012D08F1010824F8D5
:1053C000020CA4F80090EDD812980AF1010A824567
:1053D0001498079F0744DDD114E0089846F6783604
:1053E00085B2C2F2000600BF069F2846B9B206F099
:1053F000C3F83088013724F8020C02980697013868
:105400000290F1D109B0BDE8F08F00002DE9F04F16
:1054100081B040F21C07C2F200073F6814463A7C94
:10542000D20740D1581A421C40F600061304C6F6B3
:10543000004662D0FB6B02F003091F684FF6FC7355
:1054400002EA03051FFA80FA1FFA81F81FFA84FBAB
:1054500004E000BF0134A0B2584561D8A1B2404673
:1054600006F08AF846F67830C2F200000088BAF1F9
:10547000030F26F8020C09D3002000BF043081B2CC
:10548000A9423780378037803780F7D1B9F1000FD4
:10549000E0D0B9F1010F3780DCD0B9F1020F3780CD
:1054A00018BF3780D6E799423ADC40F6000846F646
:1054B000783B8146C6F600486FEA030A4D1EA4B247
:1054C000C2F2000B0135AEB23046214605F0F6FFC0
:1054D000D9F810100746896888474740304621466A
:1054E00006F04AF8BBF8000028F8020C0AEB0500A9
:1054F0000130A8F80070E5D112E046F67838A7B27E
:105500008DB2C2F2000800BFA1B2284606F034F8FE
:105510000134B8F80000A1B2B94226F8020CF3D960
:1055200001B0BDE8F08F00002DE9F04F81B040F2EE
:105530001C07C2F200073F6815463A7CD2071CD10F
:10554000A8B21FFA83F8404540D8F86B40F2FE77C6
:10555000066846F67839C6F600478CB2C2F20009F2
:10556000A9B2204606F008F8B9F8000001353880E5
:10557000A8B240457E80F3D928E09D4226DC40F267
:10558000FE7846F6783B8146C6F600486FEA030A85
:105590006C1E8DB2C2F2000B0134A6B22846314611
:1055A00005F08CFFD9F810100746896888474740F6
:1055B0002846314605F0E0FFBBF80000A8F80000DF
:1055C0000AEB04000130A8F80270E5D101B0BDE893
:1055D000F08F00002DE9F04F83B040F21C07C2F2BB
:1055E00000073F6890463A7CD2070C9A42D11FFAD6
:1055F00088F01FFA82FA504540D8581A421C40F6EB
:1056000000061304C6F600463BD0FB6B02F0030510
:105610001F684FF6FC7302EA03041FFA80FB1FFAAF
:1056200081F905E008F101081FFA88F0504525D8F6
:105630001FFA88F1484605F09FFF46F67830C2F21F
:1056400000000088BBF1030F26F8020C08D30020ED
:10565000043081B2A1423780378037803780F7D15C
:10566000002DDFD0012D3780DCD0022D378018BF10
:105670003780D7E79045D8BF994216DD03B0BDE823
:10568000F08F46F678348DB2C2F200041FFA88F12A
:10569000284605F071FF08F1010820881FFA88F1FB
:1056A000514526F8020CF1D9E8E7044640F600051A
:1056B000481E46F67831C6F600456FEA030BC2F283
:1056C00000010190029400BFDDF8049009F1010986
:1056D0001FFA88F61FFA89F73846C24688463146CF
:1056E00005F0ECFE21690446896888474440384645
:1056F000314605F041FF41460888D04625F8020CA6
:105700002C800BEB0900029C0130DFD10C98804506
:1057100008F10108D8D1B1E74DF2D400C0F601007C
:10572000012918BF00207047A1F1090007288EBF8A
:10573000002002A151F82000704700BF5558000812
:105740008558000819580008BD57000800000000DF
:10575000E9570008E5570008ED5700084A1E0D2AD2
:1057600019D881680FF20A0000EB82030020DFE8FD
:1057700002F00A0C0E10121212150708080707078C
:105780007047012070474868704788687047C8684C
:105790007047086970474FF0FF307047886970475D
:1057A00088B291B205F08ABE806800220A608289C0
:1057B000008A013A01388A80C8807047B0B5044633
:1057C000806858B91C200FF057FB05462069A5607A
:1057D0008068804711F01CFCA861A068B0FA80F0D6
:1057E0004009B0BD704700007047000070470000DE
:1057F0007047000010B588B291B21C4605F0BCFE9F
:1058000046F67830C2F20000008840F2FE71C6F61B
:10581000004108804C8010BDF0B581B0064680681C
:1058200014460D4660B91C200FF026FB0746306970
:10583000B7608068804711F0EBFBB861B06830B1A9
:105840004169002908BF29464161C0E9015401B0FE
:10585000F0BD000070B5054680680C4608B10460D4
:1058600070BD1C200FF008FB06462869AE608068FA
:10587000804711F0CDFBB061A868002818BF046014
:1058800070BD0000F0B581B00646806815460C4634
:1058900060B91C200FF0F0FA07463069B7608068E5
:1058A000804711F0B5FBB861B06810B1C0E903459D
:1058B000446101B0F0BD000070B58DB296B20446EF
:1058C0002846314605F0FAFD216904468968884773
:1058D00044402846314605F04FFE46F67830C2F285
:1058E0000000008840F2FE71C6F6004108804C803E
:1058F00070BD00002DE9F04784B046F60424002670
:105900004FF010084FF001094FF0070AC2F20004EF
:1059100001AD002701A880E8000720462946FCF7D2
:1059200009F92046FCF78AFB2046FCF799FA206823
:10593000C06C80B20744052001F08EF9132E06F1E9
:105940000106E7D34CF6CD40CCF6CC40A7FB0001D6
:10595000080914F047FF14F097FD46F26663CBF692
:105960004A734FF0663214F0A3FB47F6E1224EF281
:105970004713CAF61462C3F6F67314F091F84FF6A3
:10598000225249F6E043C7F2F652C3F6717314F09F
:105990003BF90023C4F23903002214F081F80023FC
:1059A000C4F25903002214F083FB14F0C3FA04B0CC
:1059B000BDE8F0872DE9F04140F27C20C2F2000002
:1059C00000F1370528240C266FF05F08013E671CA4
:1059D00002F07AFAC4F3062008EB4000C0B201F0EE
:1059E000EFFF02F065FBE0B201F0EAFF02F060FBBE
:1059F00002F06AFAA12001F0E3FF02F059FB01F086
:105A000011FD044602F0DCFA05F8014F30043C4673
:105A1000DCD1BDE8F08100002DE9F04140F27C20AE
:105A2000C2F2000000F1370528260C276FF05F084E
:105A300015F8014F013F02F047FAC6F3062008EBC4
:105A40004000C0B201F0BCFF02F032FBF0B201F046
:105A5000B7FF02F02DFB204601F0B2FF02F028FB59
:105A600002F0AEFA0A2001F0F7F8380406F1010658
:105A7000DED1BDE8F081000080B502F025FAA0205B
:105A800001F09EFF02F014FB342001F099FF02F0B8
:105A90000FFB0A2001F094FF02F00AFB02F090FADB
:105AA0000A20BDE8804001F0D7B80000F0B585B00D
:105AB00041F21800C4F20200016840F6004441F0CF
:105AC000080101600168C4F2010401F008010191BC
:105AD0000199016801AD41F08001016000684EF25A
